:10000000A6C00000BFC00000BDC00000BBC0000013
:10001000B9C00000B7C00000B5C00000B3C0000008
:10002000B1C00000AFC00000ADC00000DAC40000E5
:10003000A9C00000A7C00000A5C00000A3C0000028
:10004000A1C000009FC000009DC000009BC0000038
:1000500099C0000097C0000095C0000093C0000048
:1000600091C000008FC000008DC000008BC0000058
:1000700089C00000240350004F004B004B00450096
:100080004E00200043004F004E00540052004F002D
:100090004C004C004500520000001C0348004F007B
:1000A00052004900200043004F002E002C004C005D
:1000B000540044002E000000040309040902290032
:1000C00001010080FA090400000203000000092178
:1000D0001101000122560007050203400005070533
:1000E000810340000512010002000000400D0F9244
:1000F0000000010102000105010905A1011500250B
:100100000135004501750195100509190129108176
:100110000205012507463B0175049501651409395F
:10012000814265009501810126FF0046FF000930EC
:100130000931093209357508950481020600FF0965
:1001400020950181020A212695089102C000112400
:100150001FBECFEFD2E0DEBFCDBF12E0A0E0B1E026
:10016000ECE3FEE002C005900D92A839B107D9F783
:1001700022E0A8E9B2E001C01D92A83BB207E1F776
:10018000C0D15AC63DCF84B7877F84BF0FB6F894DD
:10019000A895809160008861809360001092600053
:1001A0000FBE90E080E80FB6F894809361009093C2
:1001B00061000FBE07C40895089542E360EC82E039
:1001C00042D342E361EC81E03EC30895E6E0F1E012
:1001D00020E030E08081883149F02F5F3F4F339637
:1001E00025383105B9F780E090E00895C9010895F8
:1001F000CF93DF93DC0188E0FD01982F11929A954F
:10020000E9F790E816969C93169712968C9312979E
:100210008091040113968C93139780910201149698
:100220008C9314978091000115968C93159780916B
:10023000A0029091A102181619066CF488E0E3EA76
:10024000F2E001900D928A95E1F78091A0029091E1
:10025000A102019707C1ED018091A202882319F044
:10026000823051F0F5C0B2DF9093990280939802EA
:1002700082E08093A202ECC080919C0290919D024A
:1002800063E070E0C8D58A5F9E4FDC018C918B30B3
:1002900009F479C088F5853009F469C0A8F4823082
:1002A00009F463C048F4882309F45BC0813009F085
:1002B00097C08FEF8C8394C0833009F459C0843089
:1002C00009F08EC01C8251C0883009F454C048F433
:1002D000863009F448C0873009F082C08FEF8C83E4
:1002E00048C0893009F44CC08A3009F079C01092B6
:1002F00005011092040174C0813109F464C0C8F48E
:100300008E3009F452C058F48C3009F443C08D305B
:1003100009F066C0109201011092000161C08F3097
:1003200009F446C0803109F05BC0888199818860FA
:1003300055C0853109F44BC050F4823109F43FC0F7
:10034000833109F04DC088819981826047C0863130
:1003500009F441C0873109F043C0888199819061D7
:100360003DC01C823DC08FEF8C831B8239C01C8234
:100370008FEF8B8335C0109203011092020130C0C1
:100380008FEF90E00DC08FEF90E090930501809388
:10039000040126C080E890E0909305018093040159
:1003A00090930301809302011BC08FEF90E002C085
:1003B00080E890E0909301018093000111C0888152
:1003C000998184600BC088819981816007C0888190
:1003D0009981806203C08881998192609983888322
:1003E000E0919A02F0919B023196F0939B02E09388
:1003F0009A0220919C0230919D02C90163E070E055
:100400000AD58A5F9E4FDC0111968D919C911297BF
:100410008E179F0750F42F5F3F4F30939D0220931C
:100420009C0210929B0210929A0280919C029091E1
:100430009D028638910564F080919802909199020E
:1004400090939D0280939C0210929B0210929A02BC
:1004500088E0FE01A3EAB2E001900D928A95E1F7EF
:1004600082E090E09093A1028093A002DF91CF916F
:100470000895CF93DF93CDB7DEB728970FB6F894E2
:10048000DEBF0FBECDBF8091AF02843089F582E020
:100490008093E9008091E80082FF12C08091E8001B
:1004A00085FF09C040E050E067E070E0CE010196B2
:1004B000B8D08111F7CF8091E8008B778093E80066
:1004C00081E08093E9008091E80080FF11C0CE01B7
:1004D00001968EDE40E050E068E070E0CE010196CB
:1004E00058D08111F7CF8091E8008E778093E80093
:1004F00028960FB6F894DEBF0FBECDBFDF91CF9127
:10050000089541DE7894B5DF6AD4FDCF292F3327D3
:1005100023303105B9F05CF42130310569F1223026
:10052000310579F589E290E02CEB30E02EC02132E4
:100530003105E9F02232310521F586E590E027EF1B
:1005400030E023C099278130910541F08230910538
:1005500041F0892BB1F4E8EBF0E005C0EAE9F0E006
:1005600002C0E4E7F0E0849190E09F010EC089E0D2
:1005700090E02EEC30E009C082E190E025EE30E022
:1005800004C080E090E020E030E0FA013183208375
:100590000895CF92DF92EF92FF920F931F93CF9324
:1005A000DF937C018B01EA01A4D1811131C0209736
:1005B00031F088819981081B190BE80EF91EC12CB6
:1005C000D12C0115110519F18091E80085FD14C0A9
:1005D0008091E8008E778093E80001D4209741F065
:1005E000888199818C0D9D1D9983888385E010C039
:1005F00080D1882331F30CC0F70181917F01809372
:10060000F10001501109FFEFCF1ADF0ADACF80E0C5
:10061000DF91CF911F910F91FF90EF90DF90CF90DE
:100620000895CF92DF92EF92FF920F931F93CF9393
:10063000DF937C018B01EA015CD1811131C02097ED
:1006400031F088819981081B190BE80EF91EC12C25
:10065000D12C0115110519F18091E80085FD14C018
:100660008091E8008B778093E800B9D3209741F020
:10067000888199818C0D9D1D9983888385E010C0A8
:1006800038D1882331F30CC08091F100F7018193B8
:100690007F0101501109FFEFCF1ADF0ADACF80E0A6
:1006A000DF91CF911F910F91FF90EF90DF90CF904E
:1006B00008952091B6023091B7022617370748F007
:1006C0006115710539F42091E8002E772093E80038
:1006D00001C0B90120E061157105D9F13091AF0277
:1006E000332309F444C0353009F443C03091E800A5
:1006F00033FD41C03091E80032FF06C08091E80030
:1007000082FF2AC080E008953091E80030FFE3CFF7
:100710002091F20030E0FC01281B390BCF01820F41
:10072000931F6115710549F08034910530F4819172
:100730008093F10061507109F1CF21E0803491057F
:1007400009F020E08091E8008E778093E800CF01E7
:10075000C2CF2111C3CFD2CF8091AF02882339F00D
:10076000853039F08091E80083FFC8CF04C082E073
:10077000089583E0089581E008952091B6023091B4
:10078000B7022617370748F06115710539F4209133
:10079000E8002E772093E80001C0B90120E0611540
:1007A000710509F43CC03091AF02332309F445C010
:1007B000353009F444C03091E80033FD42C0309137
:1007C000E80032FF06C08091E80082FF2BC080E085
:1007D00008953091E80030FFE2CF2091F20030E040
:1007E000FC01281B390BC9018E0F9F1F6115710574
:1007F00051F08034910538F484918093F100319662
:1008000061507109F0CF21E08034910509F020E0BA
:100810008091E8008E778093E800CF01C0CF21114E
:10082000C2CFD1CF8091AF02882339F0853039F023
:100830008091E80083FFC7CF04C082E0089583E081
:10084000089581E00895982F953058F59093E90028
:10085000981739F07091EC002091ED005091F00064
:1008600003C0242F762F50E021FF19C03091EB00F8
:100870003E7F3093EB003091ED003D7F3093ED00F3
:100880003091EB0031603093EB007093EC002093DB
:10089000ED005093F0002091EE0027FF07C09F5F0E
:1008A000D3CF8F708093E90081E0089580E00895B0
:1008B0008091B00287FD05C08091E80080FF0EC0E6
:1008C00012C08091E80082FD05C08091AF028111C5
:1008D000F8CF08958091E8008B7708C08091AF022F
:1008E0008111EACF08958091E8008E778093E80027
:1008F00008958091E4009091E50045E62091EC0098
:1009000020FF21C02091E80020FD21C02091AF02EE
:10091000222389F0253089F02091EB0025FD0FC0BE
:100920002091E4003091E5002817390739F3415050
:1009300041F0C901E3CF82E0089583E0089581E0AA
:10094000089584E008952091E80022FFDFCF80E041
:10095000089541D043D08091D8008F778093D800FC
:100960008091D80080688093D8008091D8008F7DD6
:100970008093D80084E089BD86E089BD09B400FE7B
:10098000FDCF1092AF021092AB021092AD02109206
:10099000AC0242E360E080E056DF8091E1008E7FB0
:1009A0008093E1008091E20081608093E200809179
:1009B000E20088608093E2008091E0008E7F809367
:1009C000E0000895E3E6F0E080818E7F808381E09F
:1009D0008093AE02BECF1092E20008951092E10023
:1009E00008951F920F920FB60F9211242F933F93E9
:1009F0004F935F936F937F938F939F93AF93BF9327
:100A0000EF93FF938091E10082FF0AC08091E200A2
:100A100082FF06C08091E1008B7F8093E100DED1F0
:100A20008091E10080FF17C08091E20080FF13C039
:100A30008091E2008E7F8093E2008091E2008061ED
:100A40008093E2008091D80080628093D80019BC26
:100A50001092AF02B1DB8091E10084FF2FC0809142
:100A6000E20084FF2BC084E089BD86E089BD09B423
:100A700000FEFDCF8091D8008F7D8093D8008091BB
:100A8000E1008F7E8093E1008091E2008F7E809371
:100A9000E2008091E20081608093E2008091AB02ED
:100AA000882311F084E007C08091E30087FF02C033
:100AB00083E001C081E08093AF027DDB8091E100A3
:100AC00083FF22C08091E20083FF1EC08091E1007D
:100AD000877F8093E10082E08093AF021092AB02A7
:100AE0008091E1008E7F8093E1008091E2008E7F13
:100AF0008093E2008091E20080618093E20042E313
:100B000060E080E0A0DE6AD1FF91EF91BF91AF91EC
:100B10009F918F917F916F915F914F913F912F9115
:100B20000F900FBE0F901F9018951F93CF93DF93D8
:100B3000CDB7DEB7AA970FB6F894DEBF0FBECDBF14
:100B4000E0EBF2E08091F100819322E0E83BF207D4
:100B5000C9F73BDB8091E80083FF28C19091B00288
:100B60008091B102853009F481C030F48130A9F15F
:100B700068F0833091F11AC1883009F4ECC08930F3
:100B800009F4F8C0863009F011C192C0903821F004
:100B9000923809F00BC108C08091AC029091AD026F
:100BA000992389F082600FC08091B4028F708530E4
:100BB00008F0FCC08093E9008091EB0085FB88275A
:100BC00080F91092E9009091E800977F9093E800F7
:100BD0008093F1001092F100C9C0292F2D7F09F0F8
:100BE000E5C0992319F0923061F0E0C09091B20213
:100BF000913009F0DBC0833009F090E09093AD02B2
:100C00002CC09091B202911128C02091B4022F7093
:100C10009FEF920F943008F0C9C02093E9009091A3
:100C2000EB0090FF1AC0833021F48091EB008062CA
:100C300012C08091EB0080618093EB0081E090E036
:100C400001C0880F2A95EAF78093EA001092EA0023
:100C50008091EB0088608093EB001092E900809116
:100C6000E800877F8093E80023DEA0C091119EC03A
:100C70001091B2021F778091E3008078812B8093DE
:100C8000E3008091E800877F8093E80011DE809187
:100C9000E80080FFFCCF8091E30080688093E30050
:100CA000112311F083E001C082E08093AF027EC087
:100CB0009058923008F07AC08091B2029091B302BD
:100CC0008C3D23E0920771F583E08A838AE2898371
:100CD0004FB7F894DE01139620E03EE051E2E32F97
:100CE000F0E050935700E49120FF03C0E295EF70CD
:100CF0003F5FEF708E2F90E0EA3010F0C79601C092
:100D0000C0968D939D932F5F243149F74FBF8091FB
:100D1000E800877F8093E8006AE270E0CE010196E8
:100D2000C8DC13C06091B4027091B502AE014F5F90
:100D30005F4FECDB0097D1F12091E800277F2093F3
:100D4000E800BC0189819A8118DD8091E8008B77E9
:100D50008093E8002BC0903849F58091E800877FA8
:100D60008093E8008091AB028093F1008091E800CD
:100D70008E7778CF91111AC09091B2029230B0F470
:100D80008091E800877F8093E8009093AB0290DD2C
:100D90008091AB02811104C08091E30087FF02C003
:100DA00084E001C081E08093AF0207DA8091E8001F
:100DB00083FF0AC08091E800877F8093E8008091DC
:100DC000EB0080628093EB00AA960FB6F894DEBF2A
:100DD0000FBECDBFDF91CF911F9108950895CF939E
:100DE0008091AF028823A9F08091E9008F709091E3
:100DF000EC0090FF02C090E801C090E0C92FC82B22
:100E00001092E9008091E80083FD8FDECF70C093DF
:100E1000E900CF9108950024552704C0080E591FFA
:100E2000880F991F009729F076956795B8F371059B
:0C0E3000B9F7802D952F0895F894FFCF9E
:100E3C0080008000800013000012000018000012D7
:100E4C000200190F00130200190F00010200190F04
:100E5C0000120200190F00120200190F00120200FA
:100E6C00190F00120200190F00120200190F0012C4
:100E7C000200190F00120200190F00120200191EB5
:100E8C0000130200190F00130200190F00130200C7
:100E9C00190F00130200190F00130200190F001391
:100EAC000200190F00130200190F00130200190F92
:100EBC0000130200198200130200191E0013020015
:100ECC00191E0013020019640013020019230013E9
:100EDC000200198200130200192300130200198268
:100EEC00001302001923001302001923001302003F
:100EFC00192300130200191400170500190F000123
:100F0C00020019010003020019010003020019017B
:100F1C000003020019010003020019010012020073
:100F2C0019050001500012020019050001020019F8
:100F3C000200010200190200010200190200010264
:100F4C0000190200120200190A0001020019010026
:100F5C000102001901001202001905000105001917
:100F6C000100120200190100120200190100120204
:100F7C0000190100120200190100120200190100EF
:100F8C00120200190500120200190100021E0019BC
:100F9C0001000002001901001202001901001202E6
:100FAC0000190100120200190100120200190100BF
:100FBC001202001901001202001905001702001993
:080FCC001E00170200191E00AF
:00000001FF
