:10000000A6C00000BFC00000BDC00000BBC0000013
:10001000B9C00000B7C00000B5C00000B3C0000008
:10002000B1C00000AFC00000ADC0000076C4000049
:10003000A9C00000A7C00000A5C00000A3C0000028
:10004000A1C000009FC000009DC000009BC0000038
:1000500099C0000097C0000095C0000093C0000048
:1000600091C000008FC000008DC000008BC0000058
:1000700089C00000240350004F004B004B00450096
:100080004E00200043004F004E00540052004F002D
:100090004C004C004500520000001C0348004F007B
:1000A00052004900200043004F002E002C004C005D
:1000B000540044002E000000040309040902290032
:1000C00001010080FA090400000203000000092178
:1000D0001101000122560007050203400005070533
:1000E000810340000512010002000000400D0F9244
:1000F0000000010102000105010905A1011500250B
:100100000135004501750195100509190129108176
:100110000205012507463B0175049501651409395F
:10012000814265009501810126FF0046FF000930EC
:100130000931093209357508950481020600FF0965
:1001400020950181020A212695089102C000112400
:100150001FBECFEFD2E0DEBFCDBF12E0A0E0B1E026
:10016000E4E7FDE002C005900D92AA31B107D9F78E
:1001700022E0AAE1B2E001C01D92AE33B207E1F77E
:100180005CD1F6C53DCF84B7877F84BF0FB6F894A6
:10019000A895809160008861809360001092600053
:1001A0000FBE90E080E80FB6F894809361009093C2
:1001B00061000FBEA3C30895089542E360EC82E09E
:1001C000DED242E361EC81E0DAC20895CF93DF939F
:1001D000DC0198E0ED01E92F1992EA95E9F780E852
:1001E00013968C93139714968C93149715968C935F
:1001F000159716968C93169712969C93129780914A
:10020000260290912702181619066CF488E0E9E29C
:10021000F2E001900D928A95E1F78091260290918B
:1002200027020197BBC0809128028230C1F068F498
:10023000882399F0813009F0A7C010921F02109214
:100240001E0211961C921E9208C0843009F499C0B7
:1002500040F0853009F4A6C097C082E093C083E0E7
:1002600091C080911E0290911F0263E070E06FD5F3
:1002700080509F4FEC018881863059F160F48130C5
:1002800019F1D0F08230E1F08330E1F58FEF139671
:100290008C93139737C08A3031F128F48730F1F00E
:1002A000893021F12FC08C3031F18D3059F58D918D
:1002B0009C911197906123C014961C92149722C0B0
:1002C00013961C9213971EC08FEF14968C9314975D
:1002D00019C08D919C911197846011C08D919C9152
:1002E000119782600CC014961C9214978D919C916A
:1002F0001197806204C08D919C9111978063119633
:100300009C938E93E0911C02F0911D023196F09324
:100310001D02E0931C0220911E0230911F02C901B0
:1003200063E070E014D580509F4FEC0189819A8181
:100330008E179F0750F42F5F3F4F30931F0220937B
:100340001E0210921D0210921C0280911E029091BA
:100350001F028E359105C4F087E090E090931F0254
:1003600080931E0210921D0210921C0282E0809364
:10037000280280E813968C93139714968C93149705
:1003800003C085E08093280288E0FD01A9E2B2E085
:1003900001900D928A95E1F782E090E09093270218
:1003A00080932602DF91CF910895CF93DF93CDB74D
:1003B000DEB728970FB6F894DEBF0FBECDBF809191
:1003C0003502843089F582E08093E9008091E8006D
:1003D00082FF12C08091E80085FF09C040E050E034
:1003E00067E070E0CE010196B8D08111F7CF80911F
:1003F000E8008B778093E80081E08093E9008091AA
:10040000E80080FF11C0CE010196E0DE40E050E040
:1004100068E070E0CE01019658D08111F7CF80914D
:10042000E8008E778093E80028960FB6F894DEBF38
:100430000FBECDBFDF91CF910895A5DE7894B5DFD3
:100440006AD4FDCF292F332723303105B9F05CF46E
:100450002130310569F12230310579F589E290E0EA
:100460002CEB30E02EC021323105E9F0223231058B
:1004700021F586E590E027EF30E023C09927813011
:10048000910541F08230910541F0892BB1F4E8EB00
:10049000F0E005C0EAE9F0E002C0E4E7F0E08491B2
:1004A00090E09F010EC089E090E02EEC30E009C0A2
:1004B00082E190E025EE30E004C080E090E020E0B2
:1004C00030E0FA01318320830895CF92DF92EF92DA
:1004D000FF920F931F93CF93DF937C018B01EA016F
:1004E000A4D1811131C0209731F088819981081BF6
:1004F000190BE80EF91EC12CD12C0115110519F1AB
:100500008091E80085FD14C08091E8008E7780938B
:10051000E80001D4209741F0888199818C0D9D1DC0
:100520009983888385E010C080D1882331F30CC083
:10053000F70181917F018093F10001501109FFEFD4
:10054000CF1ADF0ADACF80E0DF91CF911F910F91B0
:10055000FF90EF90DF90CF900895CF92DF92EF92CF
:10056000FF920F931F93CF93DF937C018B01EA01DE
:100570005CD1811131C0209731F088819981081BAD
:10058000190BE80EF91EC12CD12C0115110519F11A
:100590008091E80085FD14C08091E8008B778093FE
:1005A000E800B9D3209741F0888199818C0D9D1D79
:1005B0009983888385E010C038D1882331F30CC03B
:1005C0008091F100F70181937F0101501109FFEF44
:1005D000CF1ADF0ADACF80E0DF91CF911F910F9120
:1005E000FF90EF90DF90CF90089520913C023091E2
:1005F0003D022617370748F06115710539F420913F
:10060000E8002E772093E80001C0B90120E06115D1
:100610007105D9F130913502332309F444C03530E6
:1006200009F443C03091E80033FD41C03091E80047
:1006300032FF06C08091E80082FF2AC080E0089562
:100640003091E80030FFE3CF2091F20030E0FC0170
:10065000281B390BCF01820F931F6115710549F0DB
:100660008034910530F481918093F10061507109DB
:10067000F1CF21E08034910509F020E08091E8007D
:100680008E778093E800CF01C2CF2111C3CFD2CFA4
:1006900080913502882339F0853039F08091E80067
:1006A00083FFC8CF04C082E0089583E0089581E00D
:1006B000089520913C0230913D022617370748F0FB
:1006C0006115710539F42091E8002E772093E80038
:1006D00001C0B90120E06115710509F43CC03091F9
:1006E0003502332309F445C0353009F444C0309154
:1006F000E80033FD42C03091E80032FF06C080912F
:10070000E80082FF2BC080E008953091E80030FFC0
:10071000E2CF2091F20030E0FC01281B390BC90127
:100720008E0F9F1F6115710551F08034910538F4CB
:1007300084918093F100319661507109F0CF21E0EE
:100740008034910509F020E08091E8008E77809355
:10075000E800CF01C0CF2111C2CFD1CF80913502A7
:10076000882339F0853039F08091E80083FFC7CFC6
:1007700004C082E0089583E0089581E00895982FF1
:10078000953058F59093E900981739F07091EC0086
:100790002091ED005091F00003C0242F762F50E0FF
:1007A00021FF19C03091EB003E7F3093EB00309178
:1007B000ED003D7F3093ED003091EB0031603093E0
:1007C000EB007093EC002093ED005093F00020912B
:1007D000EE0027FF07C09F5FD3CF8F708093E900A3
:1007E00081E0089580E008958091360287FD05C07C
:1007F0008091E80080FF0EC012C08091E80082FD69
:1008000005C0809135028111F8CF08958091E800EC
:100810008B7708C0809135028111EACF08958091CD
:10082000E8008E778093E80008958091E40090912D
:10083000E50045E62091EC0020FF21C02091E80072
:1008400020FD21C020913502222389F0253089F036
:100850002091EB0025FD0FC02091E4003091E500D0
:100860002817390739F3415041F0C901E3CF82E03D
:10087000089583E0089581E0089584E0089520912B
:10088000E80022FFDFCF80E0089541D043D080917F
:10089000D8008F778093D8008091D80080688093AB
:1008A000D8008091D8008F7D8093D80084E089BDE6
:1008B00086E089BD09B400FEFDCF1092350210928A
:1008C0003102109233021092320242E360E080E083
:1008D00056DF8091E1008E7F8093E1008091E200FD
:1008E00081608093E2008091E20088608093E20062
:1008F0008091E0008E7F8093E0000895E3E6F0E0D1
:1009000080818E7F808381E080933402BECF1092FD
:10091000E20008951092E10008951F920F920FB621
:100920000F9211242F933F934F935F936F937F9375
:100930008F939F93AF93BF93EF93FF938091E100C9
:1009400082FF0AC08091E20082FF06C08091E10030
:100950008B7F8093E100DED18091E10080FF17C0A2
:100960008091E20080FF13C08091E2008E7F80932F
:10097000E2008091E20080618093E2008091D800E3
:1009800080628093D80019BC1092350215DC8091EA
:10099000E10084FF2FC08091E20084FF2BC084E03F
:1009A00089BD86E089BD09B400FEFDCF8091D800E5
:1009B0008F7D8093D8008091E1008F7E8093E1004D
:1009C0008091E2008F7E8093E2008091E20081605E
:1009D0008093E20080913102882311F084E007C007
:1009E0008091E30087FF02C083E001C081E0809333
:1009F0003502E1DB8091E10083FF22C08091E200BB
:100A000083FF1EC08091E100877F8093E10082E038
:100A100080933502109231028091E1008E7F8093A5
:100A2000E1008091E2008E7F8093E2008091E200FD
:100A300080618093E20042E360E080E0A0DE6AD162
:100A4000FF91EF91BF91AF919F918F917F916F91A6
:100A50005F914F913F912F910F900FBE0F901F907C
:100A600018951F93CF93DF93CDB7DEB7AA970FB634
:100A7000F894DEBF0FBECDBFE6E3F2E08091F10057
:100A8000819322E0EE33F207C9F79FDB8091E80003
:100A900083FF28C19091360280913702853009F496
:100AA00081C030F48130A9F168F0833091F11AC12E
:100AB000883009F4ECC0893009F4F8C0863009F0B8
:100AC00011C192C0903821F0923809F00BC108C0D2
:100AD0008091320290913302992389F082600FC095
:100AE00080913A028F70853008F0FCC08093E90055
:100AF0008091EB0085FB882780F91092E9009091A6
:100B0000E800977F9093E8008093F1001092F10045
:100B1000C9C0292F2D7F09F0E5C0992319F0923023
:100B200061F0E0C090913802913009F0DBC0833071
:100B300009F090E0909333022CC09091380291110B
:100B400028C020913A022F709FEF920F943008F046
:100B5000C9C02093E9009091EB0090FF1AC0833048
:100B600021F48091EB00806212C08091EB008061E3
:100B70008093EB0081E090E001C0880F2A95EAF7AE
:100B80008093EA001092EA008091EB0088608093E5
:100B9000EB001092E9008091E800877F8093E800E5
:100BA00023DEA0C091119EC0109138021F77809162
:100BB000E3008078812B8093E3008091E800877FB9
:100BC0008093E80011DE8091E80080FFFCCF8091E7
:100BD000E30080688093E300112311F083E001C0FB
:100BE00082E0809335027EC09058923008F07AC03F
:100BF00080913802909139028C3D23E0920771F583
:100C000083E08A838AE289834FB7F894DE011396E2
:100C100020E03EE051E2E32FF0E050935700E491F2
:100C200020FF03C0E295EF703F5FEF708E2F90E0E2
:100C3000EA3010F0C79601C0C0968D939D932F5F48
:100C4000243149F74FBF8091E800877F8093E80007
:100C50006AE270E0CE010196C8DC13C060913A02EE
:100C600070913B02AE014F5F5F4FECDB0097D1F11B
:100C70002091E800277F2093E800BC0189819A81B8
:100C800018DD8091E8008B778093E8002BC09038C6
:100C900049F58091E800877F8093E80080913102D8
:100CA0008093F1008091E8008E7778CF91111AC07F
:100CB000909138029230B0F48091E800877F809361
:100CC000E8009093310290DD80913102811104C0DF
:100CD0008091E30087FF02C084E001C081E080933F
:100CE00035026BDA8091E80083FF0AC08091E8004A
:100CF000877F8093E8008091EB0080628093EB0017
:100D0000AA960FB6F894DEBF0FBECDBFDF91CF918C
:100D10001F9108950895CF93809135028823A9F0FB
:100D20008091E9008F709091EC0090FF02C090E8F4
:100D300001C090E0C92FC82B1092E9008091E80013
:100D400083FD8FDECF70C093E900CF91089500241A
:100D5000552704C0080E591F880F991F009729F0C6
:100D600076956795B8F37105B9F7802D952F08959D
:040D7000F894FFCF25
:100D7400070500070500070500070500070500072C
:100D8400050007050007050007050007050006051F
:100D9400000B1E000705000B1E000705000B1E00BC
:100DA4000705000B32000D05000B0F000105000BB9
:100DB40005000305000B05000305000B05000305F2
:100DC400000B05000305000B05000605000B0500DC
:100DD40001050001050001050001050001050001F0
:100DE40005000105000105000105000105000105DC
:100DF400000105000105000105000B0F00060500B8
:100E04000B05000105000B05000105000B050001A1
:100E140005000B05000105000B05000605000B0588
:100E2400000105000B05000105000B050006050087
:100E34000B0F000105000B0F000305000305000361
:100E440005000305000305000B0F000605000B0F4A
:100E54000006050002050002050002050002050067
:100E64000205000B0F000005000305000305000345
:100E740005000305000305000B0F000605000B1E0B
:0A0E8400000D05000B1E000D050017
:00000001FF
