:10000000A6C00000BFC00000BDC00000BBC0000013
:10001000B9C00000B7C00000B5C00000B3C0000008
:10002000B1C00000AFC00000ADC00000D8C30000E8
:10003000A9C00000A7C00000A5C00000A3C0000028
:10004000A1C000009FC000009DC000009BC0000038
:1000500099C0000097C0000095C0000093C0000048
:1000600091C000008FC000008DC000008BC0000058
:1000700089C00000240350004F004B004B00450096
:100080004E00200043004F004E00540052004F002D
:100090004C004C004500520000001C0348004F007B
:1000A00052004900200043004F002E002C004C005D
:1000B000540044002E000000040309040902290032
:1000C00001010080FA090400000203000000092178
:1000D0001101000122560007050203400005070533
:1000E000810340000512010002000000400D0F9244
:1000F0000000010102000105010905A1011500250B
:100100000135004501750195100509190129108176
:100110000205012507463B0175049501651409395F
:10012000814265009501810126FF0046FF000930EC
:100130000931093209357508950481020600FF0965
:1001400020950181020A212695089102C000112400
:100150001FBECFEFD2E0DEBFCDBF11E0A0E0B1E027
:10016000E0E4FCE002C005900D92A032B107D9F79F
:1001700011E0A0E2B1E001C01D92A133B107E1F7A7
:10018000A8D05CC53DCF84B7877F84BF88E10FB618
:10019000F89480936000109260000FBE90E080E8B9
:1001A0000FB6F89480936100909361000FBE8AB1FE
:1001B0001AB88BB18FEF8BB994B114B895B185B9DA
:1001C000FFC20895089582E060EC42E337D281E0F7
:1001D00061EC42E333C20895FC0198E0DF01892F0E
:1001E0001D928A95E9F780E88383848385838683DB
:1001F000928380912201909123018634910534F4F9
:10020000019690932301809322010895809120010B
:1002100090912101853091057CF4808191818460E9
:100220009183808380912001909121010196909388
:100230002101809320010895109221011092200144
:1002400010922301109222010895CF93DF93CDB72E
:10025000DEB728970FB6F894DEBF0FBECDBF8091F2
:100260002801843069F582E08093E9008091E800FC
:1002700082FF10C08091E80085FF07C0CE01019683
:1002800067E070E040E050E0B6D08091E8008B7706
:100290008093E80081E08093E9008091E80080FF8E
:1002A0000FC0CE01019698DFCE01019668E070E0A4
:1002B00040E050E050D08091E8008E778093E800D5
:1002C00028960FB6F894DEBF0FBECDBFDF91CF9159
:1002D000089559DF7894B9DF95D4FDCF933089F034
:1002E000943028F4913049F1923061F505C0913293
:1002F000D1F0923239F51CC089E290E0ECEBF0E0ED
:1003000025C0813041F0813018F08230D9F406C028
:10031000E8EBF0E005C0EAE9F0E002C0E4E7F0E075
:10032000849190E013C089E090E0EEECF0E00EC024
:1003300086E590E0E7EFF0E009C082E190E0E5EECD
:10034000F0E004C080E090E0E0E0F0E0DA01119637
:10035000FC93EE930895AF92BF92CF92DF92EF920B
:10036000FF921F93CF93DF93EC017B016A01BCD115
:10037000182F8823A9F5C114D10439F0F601208182
:100380003181E21AF30AC20FD31FAA24BB2423C06F
:100390008091E80085FD16C08091E8008E778093FB
:1003A000E80030D4C114D10449F0F6018081918174
:1003B0008A0D9B1D9183808315E012C095D18823FF
:1003C00051F00DC089918093F1000894E108F10883
:1003D0000894A11CB11CE114F104D1F601C0182F3E
:1003E000812FDF91CF911F91FF90EF90DF90CF9001
:1003F000BF90AF900895AF92BF92CF92DF92EF92ED
:10040000FF921F93CF93DF93EC017B016A016CD1C4
:10041000182F8823A9F5C114D10439F0F6012081E1
:100420003181E21AF30AC20FD31FAA24BB2423C0CE
:100430008091E80085FD16C08091E8008B7780935D
:10044000E800E0D3C114D10449F0F6018081918124
:100450008A0D9B1D9183808315E012C045D18823AE
:1004600051F00DC08091F10089930894E108F108E2
:100470000894A11CB11CE114F104D1F601C0182F9D
:10048000812FDF91CF911F91FF90EF90DF90CF9060
:10049000BF90AF90089520912F0130913001261721
:1004A000370728F4B901582F492F20E03FC06115C4
:1004B0007105C9F72091E8002E772093E800F3CF6B
:1004C00080912801882309F449C0853009F448C087
:1004D0008091E80083FD40C08091E80082FD36C035
:1004E0008091E80080FF22C02091F20030E0E52FEB
:1004F000F42F2E1B3F0B05C081918093F1006150BA
:100500007040CF01820F931F6115710519F080347F
:10051000910590F321E08034910509F020E080916D
:10052000E8008E778093E8005E2F4F2F61157105EC
:1005300039F6222329F60AC080912801882371F018
:10054000853071F08091E80083FD0CC08091E80057
:1005500082FFF2CF80E0089581E0089582E008955F
:1005600083E0089581E0089520912F0130913001BA
:100570002617370728F4B901582F492F20E040C02B
:1005800061157105C9F72091E8002E772093E800E6
:10059000F3CF80912801882309F44AC0853009F4FB
:1005A00049C08091E80083FD41C08091E80082FD50
:1005B00037C08091E80080FF23C02091F20030E036
:1005C000E52FF42F2E1B3F0B06C084918093F10082
:1005D000319661507040C9018E0F9F1F61157105E2
:1005E00019F08034910588F321E08034910509F0F9
:1005F00020E08091E8008E778093E8005E2F4F2FF7
:100600006115710531F6222321F60AC08091280177
:10061000882371F0853071F08091E80083FD0CC073
:100620008091E80082FFF2CF80E0089581E0089594
:1006300082E0089583E0089581E00895982F2AC00C
:100640009093E900981739F07091EC002091ED003B
:100650005091F00003C0242F762F50E021FF19C0E5
:100660003091EB003E7F3093EB003091ED003D7F09
:100670003093ED003091EB0031603093EB007093DC
:10068000EC002093ED005093F0002091EE0027FF46
:1006900008C09F5F9530A0F28F708093E90081E0E1
:1006A000089580E008958091290187FF13C004C058
:1006B000809128018823B9F08091E80082FFF8CF6B
:1006C0008091E8008B778093E8000895809128015D
:1006D000882349F08091E80080FFF8CF8091E800FE
:1006E0008E778093E80008958091E4009091E50072
:1006F00045E601C0C9012091EC0020FF23C02091F4
:10070000E80020FD15C020912801222399F0253012
:1007100099F02091EB0025FD11C02091E40030916B
:10072000E5002817390739F3415021F784E008958F
:1007300080E0089582E0089583E0089581E00895BF
:1007400080E008952091E80022FFDDCFF9CF41D06D
:1007500043D08091D8008F778093D8008091D800C3
:1007600080688093D8008091D8008F7D8093D800D6
:1007700084E089BD86E089BD09B400FEFDCF1092FA
:10078000280110922401109226011092250180E088
:1007900060E042E353DF8091E1008E7F8093E100CF
:1007A0008091E20081608093E2008091E2008860A5
:1007B0008093E2008091E0008E7F8093E0000895B6
:1007C000E3E6F0E080818E7F808381E080932701E3
:1007D000BECF1092E20008951092E10008951F929A
:1007E0000F920FB60F9211242F933F934F935F9365
:1007F0006F937F938F939F93AF93BF93EF93FF93E9
:100800008091E10082FF0AC08091E20082FF06C071
:100810008091E1008B7F8093E100F3D18091E10032
:1008200080FF17C08091E20080FF13C08091E2003A
:100830008E7F8093E2008091E20080618093E200ED
:100840008091D80080628093D80019BC1092280152
:10085000B9DC8091E10084FF2FC08091E20084FF29
:100860002BC084E089BD86E089BD09B400FEFDCFC0
:100870008091D8008F7D8093D8008091E1008F7E99
:100880008093E1008091E2008F7E8093E20080916E
:10089000E20081608093E20080912401882311F0BE
:1008A00084E007C08091E30087FF02C083E001C0BD
:1008B00081E08093280185DC8091E10083FF22C0E4
:1008C0008091E20083FF1EC08091E100877F8093CA
:1008D000E10082E080932801109224018091E100E0
:1008E0008E7F8093E1008091E2008E7F8093E20012
:1008F0008091E20080618093E20080E060E042E36A
:100900009DDE7FD1FF91EF91BF91AF919F918F912C
:100910007F916F915F914F913F912F910F900FBEFB
:100920000F901F9018951F93CF93DF93CDB7DEB72D
:10093000AC970FB6F894DEBF0FBECDBF80E0E9E202
:10094000F1E09091F10091938F5F8830D1F743DC13
:100950008091E80083FF3DC18091290120912A0107
:10096000253009F48AC0263040F42130B9F1213015
:1009700070F0233009F02DC131C0283009F4FBC0DC
:10098000293009F40AC1263009F023C199C0803802
:1009900021F0823809F01DC108C080912501909195
:1009A0002601992389F082600FC080912D018F70FC
:1009B000853008F00EC18093E9009091EB0081E052
:1009C00095FF80E01092E9009091E800977F909366
:1009D000E8008093F1001092F100D8C0882319F04C
:1009E000823009F0F6C090E08F719070009729F086
:1009F0008230910509F0EDC00BC080912B01813050
:100A000009F0E7C0233009F080E0809326012FC071
:100A100080912B01882359F520912D012F70822F71
:100A20008150843008F0D5C02093E9008091EB001C
:100A300080FF1DC080912A01833021F48091EB005A
:100A4000806213C08091EB0080618093EB0081E0B5
:100A500090E002C0880F991F2A95E2F78093EA0080
:100A60001092EA008091EB0088608093EB00109276
:100A7000E9008091E800877F8CC0882309F0A9C035
:100A800010912B011F778091E3008078812B809358
:100A9000E3008091E800877F8093E80004DE809186
:100AA000E80080FFFCCF8091E30080688093E30042
:100AB000112311F083E001C082E08093280189C0F6
:100AC0008058823008F085C080912B0190912C01D4
:100AD00023E08C3D9207A9F583E08C838AE28B8327
:100AE0005FB7F894DE01139680E090E04EE061E29B
:100AF000E42FF0E060935700E49180FF03C0E2959B
:100B0000EF704F5FEF702E2F30E0EA3018F0295C65
:100B10003F4F02C0205D3F4F13963C932E93129798
:100B2000019612968431910519F75FBF8091E80014
:100B3000877F8093E800CE0103966AE270E0ABDC29
:100B400014C060912D0170912E01AE014F5F5F4F77
:100B5000C5DBBC01009709F43CC08091E800877FA9
:100B60008093E80089819A81FFDC8091E8008B778F
:100B70008093E8002EC0803861F58091E800877F7F
:100B80008093E800809124018093F1008091E80037
:100B90008E778093E80087DD1CC08823D1F4909184
:100BA0002B019230B0F48091E800877F8093E800B9
:100BB0009093240178DD80912401882321F4809191
:100BC000E30087FF02C084E001C081E08093280138
:100BD000FADA8091E80083FF0AC08091E800877FFD
:100BE0008093E8008091EB0080628093EB00AC96EC
:100BF0000FB6F894DEBF0FBECDBFDF91CF911F912E
:100C000008950895CF93809128018823A9F08091B9
:100C1000E9008F709091EC0090FF02C0C0E801C025
:100C2000C0E0C82B1092E9008091E80083FF01C06A
:100C30007ADECF70C093E900CF910895F894FFCF8A
:100C400001000200040008001000200040008000A5
:100C50000001000200040008001000200040008095
:00000001FF
